:100000000C94CA030C9448080C9421080C94750AAB
:100010000C94750A0C94750A0C944B0A0C94F20318
:100020000C94F2030C94F2030C94F2030C94F2037C
:100030000C94F2030C94F2030C94F2030C94F2036C
:100040000C94D7070C94F2030C94CA060C94A406E3
:100050000C94F2030C94F2030C94F2030C94F2034C
:100060000C94050B0C94F2032B434E54503A004170
:10007000542B434E545000222C300041542B434EFD
:1000800054503D220041542B434E54504349443D6B
:1000900031004469646E27742066696E642072655D
:1000A0006C6961626C652074696D652E2057696C9E
:1000B0006C20636F6E74696E756520746F20757344
:1000C000652052544327732063757272656E7420E5
:1000D00074696D652E0041646A757374696E67207A
:1000E0005254432E004F627461696E6564206375DB
:1000F0007272656E742074696D653A200041542BEC
:1001000043434C4B3F00417474656D7074696E6776
:1001100020746F20656E61626C65204E54502073B0
:10012000796E632E0047534D206C6F636174696F65
:100130006E2073657276696365206661696C6564BB
:100140002E005265636F6D626F62756C6174696ECB
:10015000672E2E2E00417474656D7074696E672071
:10016000746F206765742074696D652066726F6DA9
:100170002047534D206C6F636174696F6E20736507
:1001800072766963652E2E2E0020004D61797461B0
:100190006C2076002B4342433A200041542B4342CB
:1001A000430053656E64696E672070726573737582
:1001B00072652072656164696E672E2E2E00205074
:1001C00053492E0030003A000000000024002700B0
:1001D0002A004F4B0041542B43504F57443D3100B0
:1001E00047505253206973206F66662E004661693E
:1001F0006C656420746F207475726E204750525382
:10020000206F66662E0041542B43504D533D2253C0
:100210004D222C22534D222C22534D220053494D66
:100220003830304800093C2D2D2D2000092D2D2D72
:100230003E200053494D434F4D5F53494D353332B6
:1002400030450053494D434F4D5F53494D3533328F
:1002500030410053494D383030205231330053493A
:100260004D383038205231330053494D3830382022
:1002700052313400093C2D2D2D2000092D2D2D3E0D
:10028000200041542B435648553D300041544530E1
:100290000041544530004154004154004154005441
:1002A000696D656F75743A204E6F20726573706F5B
:1002B0006E736520746F2041542E2E2E206C617356
:1002C0007420646974636820617474656D70742E41
:1002D00000415400415400415400417474656D70F4
:1002E00074696E6720746F206F70656E20636F6D28
:1002F0006D207769746820415473002B4352454741
:100300003A200041542B435245473F002B43535161
:100310003A200041542B4353510041542B43474151
:1003200054543D300041542B53415042523D302CE7
:10033000310053485554204F4B0041542B434950F2
:10034000534855540043616E2774207472616E7374
:100350006D69742C206E6574776F726B207369679A
:100360006E616C20737472656E67746820697320A7
:10037000706F6F722E004661696C656420746F2027
:100380007475726E2047505253206F6E2E2E2E20A1
:100390000047505253206973206F6E2E00547279BB
:1003A000696E6720616761696E2E2E2E005253536D
:1003B000493A2000646F6E652E0074696D65642093
:1003C0006F75742E20436865636B2053494D20631D
:1003D0006172642C20616E74656E6E612C20616E9A
:1003E00064207369676E616C2E0057616974696E71
:1003F0006720666F722047534D206E6574776F7269
:100400006B2E2E2E2000464F4E41206F6E6C696E73
:10041000652E2000464F4E41206E6F7420666F752A
:100420006E642E20436865636B20776972696E671E
:1004300020616E6420706F7765722E00496E69745A
:1004400069616C697A696E6720464F4E412E2E2E87
:100450000020646F6E652E00506F776572696E675D
:1004600020464F4E41206F6E2E2E2E002B485454A6
:1004700050414354494F4E3A00093C2D2D2D200048
:10048000092D2D2D3E20002B4854545041435449F2
:100490004F4E3A0041542B48545450414354494F15
:1004A0004E3D0041542B485454505445524D005237
:1004B00065706C79206C656E6774683A20005374BF
:1004C0006174757320636F64653A20002C3230309C
:1004D000300041542B48545450444154413D004F46
:1004E0004B002C323030300041542B48545450448F
:1004F0004154413D002F64617461220022696F2ED6
:1005000061646166727569742E636F6D2F617069C5
:100510002F76322F69716E61756C2F666565647315
:100520002F00506F7374696E6720746F2055524CA2
:100530003A20004F4B0022005858585858585858E5
:1005400058585858585858580041542B48545450EB
:10055000504152413D225553455244415441222C71
:1005600022582D41494F2D4B45593A200022004138
:10057000542B48545450504152413D2255534552FA
:1005800044415441222C22582D41494F2D4B45596D
:100590003A20004F4B0041542B4854545050415284
:1005A000413D22434F4E54454E54222C22617070DF
:1005B0006C69636174696F6E2F6A736F6E22004F8E
:1005C0004B0041542B48545450504152413D22520B
:1005D00045444952222C223022004F4B002F6461A7
:1005E0007461220041542B48545450504152413DB3
:1005F0002255524C222C22696F2E616461667275FD
:1006000069742E636F6D2F6170692F76322F697157
:100610006E61756C2F66656564732F004F4B0041EA
:10062000542B48545450504152413D224349442296
:100630002C31004F4B0041542B48545450494E49E3
:100640005400093C2D2D2D2000092D2D2D3E20007C
:1006500041542B43494943520041542B534150428A
:10066000523D312C310041542B53415042523D33C5
:100670002C312C22505744222C0041542B534150F2
:1006800042523D332C312C2255534552222C0041ED
:10069000542B435354543D2200092D2D2D3E200050
:1006A00041542B435354543D220041542B53415049
:1006B00042523D332C312C2241504E222C004154C9
:1006C0002B53415042523D332C312C22434F4E5438
:1006D000595045222C2247505253220041542B435B
:1006E000474154543D310053485554204F4B00412D
:1006F000542B4349505348555400093C2D2D2D206F
:1007000000093C2D2D2D2000092D2D2D3E20002BE4
:1007100043474154543A200041542B4347415454D9
:100720003F00000000080002010000030407000071
:10073000000000000000093C2D2D2D2000092D2D6A
:100740002D3E200000000000250028002B000000A6
:100750000000230026002900040404040404040407
:10076000020202020202030303030303010204085C
:10077000102040800102040810200102040810200B
:100780004F4B00464F4E4100464F4E416E65740040
:10079000001DF61C11241FBECFEFD8E0DEBFCDBF79
:1007A00025E0ACE0B2E001C01D92A534B207E1F74C
:1007B00012E0A0E0B1E0ECE5FCE402C005900D928F
:1007C000AC30B107D9F713E0C9ECD3E004C02197EE
:1007D000FE010E945A21C83CD107C9F70E94AD17FB
:1007E0000C9421260C940000FC01538D448D252F80
:1007F00030E0842F90E0821B930B541710F0CF96BB
:10080000089501970895FC01918D828D981761F0EC
:10081000828DDF01A80FB11D5D968C91928D9F5F37
:100820009F73928F90E008958FEF9FEF0895FC01E2
:10083000918D828D981731F0828DE80FF11D858D95
:1008400090E008958FEF9FEF0895FC01918D228D28
:10085000892F90E0805C9F4F821B91098F739927AD
:10086000089587E493E00E94250421E0892B09F490
:1008700020E0822F0895FC01848DDF01A80FB11DB7
:10088000A35ABF4F2C91848D90E001968F739927C6
:10089000848FA689B7892C93A089B1898C918064B3
:1008A0008C93938D848D981306C00288F389E02D74
:1008B00080818F7D80830895EF92FF920F931F9325
:1008C000CF93DF93EC0181E0888F9B8D8C8D981303
:1008D00005C0E889F989808185FD24C0F62E0B8D3D
:1008E00010E00F5F1F4F0F731127E02E8C8DE81261
:1008F0000CC00FB607FCFACFE889F989808185FF23
:10090000F5CFCE010E943B04F1CF8B8DFE01E80FA5
:10091000F11DE35AFF4FF0820B8FEA89FB8980813A
:10092000806207C0EE89FF896083E889F989808148
:100930008064808381E090E0DF91CF911F910F91DF
:10094000FF90EF900895CF93DF93EC01888D88237B
:10095000C9F0EA89FB89808185FD05C0A889B9892C
:100960008C9186FD0FC00FB607FCF5CF808185FF07
:10097000F2CFA889B9898C9185FFEDCFCE010E9475
:100980003B04E7CFDF91CF91089580E090E0892B81
:1009900029F00E94310481110C94000008953FB7A2
:1009A000F8948091DC029091DD02A091DE02B0917A
:1009B000DF0226B5A89B05C02F3F19F00196A11DA7
:1009C000B11D3FBFBA2FA92F982F8827820F911DE5
:1009D000A11DB11DBC01CD0143E0660F771F881F2B
:1009E000991F4A95D1F7089508951F920F920FB657
:1009F0000F9211240F900FBE0F901F901895FC01BD
:100A0000E85EFE4F80819181DC01ED91FC910680D2
:100A1000F781E02D0994FC01E85EFE4F8081918111
:100A2000DC01ED91FC910484F585E02D0994FC0135
:100A3000E85EFE4F80819181DC01ED91FC910284A2
:100A4000F385E02D0994FC01E85EFE4F80819181E1
:100A5000DC01ED91FC910190F081E02D0994FC0105
:100A6000E85EFE4F80819181DC01ED91FC91008474
:100A7000F185E02D099420914A0230914B0228170C
:100A8000390771F49091490280914802981741F01A
:100A9000E0914902F0E0ED56FD4F808190E008952D
:100AA0008FEF9FEF089508951F93CF93DF93DC019D
:100AB0005C962D913C915D972115310539F481E0CB
:100AC00090E013969C938E9312973DC05196ED91B2
:100AD000FC91529750969C915097892F80951FB703
:100AE0005E964C915E9741FB772770F941FD6095CA
:100AF000F8944081772311F0492B01C048234083AB
:100B0000E9012197F1F748E0508160FF02C0592BBD
:100B100001C058235083E9012197F1F766954150B0
:100B200099F7772321F090818923808303C0808106
:100B3000982B90831FBF5C968D919C915D97019738
:100B4000F1F721E030E0C901DF91CF911F910895C5
:100B500020914A0230914B022817390771F4809195
:100B600048022091490290E0805C9F4F821B9109CE
:100B700060E470E00E940821089580E090E008950C
:100B800020914A0230914B0228173907B9F490910D
:100B9000490280914802981789F0E0914902F0E0FB
:100BA000ED56FD4F80812091490230E02F5F3F4F8D
:100BB0002F7333272093490290E008958FEF9FEF22
:100BC000089585ED8093BC008091BC0084FDFCCF2E
:100BD0001092E603089540916E02262F30E0240F14
:100BE000311D21323105DCF42091E6032430C9F4B3
:100BF000FC0180E090E0861758F430916E0221915C
:100C0000DC01A45BBD4FA30FB11D2C930196F3CF64
:100C100080916E02680F60936E0280E0089581E01B
:100C2000089582E008950895E091EA038091E90330
:100C3000E81730F4F0E0E052FD4F808190E0089535
:100C40008FEF9FEF08959091EA038091E903981741
:100C500050F4E92FF0E0E052FD4F208130E09F5F3B
:100C60009093EA0302C02FEF3FEFC90108958091EE
:100C7000E90390E02091EA03821B91090895CF9245
:100C8000DF92EF92FF920F931F93CF93DF937C013C
:100C9000262F972F8A0180912503882391F0C62F54
:100CA000D72F6E01C40ED51ECC15DD0571F06991EC
:100CB000D701ED91FC910190F081E02DC7010995DC
:100CC000F3CF642F822F0E94EB05C801DF91CF91F3
:100CD0001F910F91FF90EF90DF90CF900895CF93E9
:100CE000DF931F92CDB7DEB76983209125032223BE
:100CF000D1F02091E703203240F021E030E0FC0108
:100D00003383228380E090E015C08091E803E82FD0
:100D1000F0E0EA5DFC4F998190838F5F8093E80358
:100D20008093E70305C061E0CE0101960E94EB05C8
:100D300081E090E00F90DF91CF910895089580E0D9
:100D400090E008950E9457231F920F920FB60F92C2
:100D500011242F933F934F935F936F937F938F93C0
:100D60009F93AF93BF93EF93FF9387E493E00E9429
:100D70003B04FF91EF91BF91AF919F918F917F9134
:100D80006F915F914F913F912F910F900FBE0F90F8
:100D90001F9018951F920F920FB60F9211242F9348
:100DA0008F939F93EF93FF93E0915703F091580334
:100DB0008081E0915D03F0915E0382FD12C090811D
:100DC000809160038F5F8F7320916103821751F0D0
:100DD000E0916003F0E0E95BFC4F958F8093600346
:100DE00001C08081FF91EF919F918F912F910F9082
:100DF0000FBE0F901F901895833081F028F481303A
:100E000099F08230A1F008958730A9F08830B9F0C8
:100E10008430D1F4809180008F7D03C08091800068
:100E20008F7780938000089584B58F7702C084B552
:100E30008F7D84BD08958091B0008F7703C080912D
:100E4000B0008F7D8093B00008951F93CF93DF9300
:100E5000282F30E0F901EE5DF84F8491F901E45953
:100E6000F84FD491F901E85AF84FC491CC23C9F056
:100E7000162F81110E94FC06EC2FF0E0EE0FFF1FF1
:100E8000EC5BF84FA591B4918FB7F894111105C0A0
:100E90009C91ED2FE095E92302C0EC91ED2BEC93B2
:100EA0008FBFDF91CF911F910895CF93DF9390E093
:100EB000FC01E459F84F2491FC01E85AF84F849161
:100EC000882361F190E0880F991FFC01E853FE4FE1
:100ED000C591D491FC01EC5BF84FA591B4916111DF
:100EE00009C09FB7F8948881209582238883EC916C
:100EF0002E230BC0623061F49FB7F8943881822FA3
:100F0000809583238883EC912E2B2C939FBF06C062
:100F10008FB7F894E8812E2B28838FBFDF91CF9174
:100F200008958F929F92AF92BF92CF92DF92EF92ED
:100F3000FF926B017C010E94CF044B015C01C11444
:100F4000D104E104F104F1F00E94CF04DC01CB01F3
:100F500088199909AA09BB09883E9340A105B105E2
:100F600070F321E0C21AD108E108F10888EE880E7A
:100F700083E0981EA11CB11CC114D104E104F1044A
:100F800019F7DDCFFF90EF90DF90CF90BF90AF903B
:100F90009F908F9008952FB7F8946091D802709128
:100FA000D9028091DA029091DB022FBF08951F923F
:100FB0000F920FB60F9211242F933F938F939F930D
:100FC000AF93BF938091D8029091D902A091DA0299
:100FD000B091DB023091D70226E0230F2D3720F4A9
:100FE0000296A11DB11D05C029E8230F0396A11D7E
:100FF000B11D2093D7028093D8029093D902A09379
:10100000DA02B093DB028091DC029091DD02A091C4
:10101000DE02B091DF020196A11DB11D8093DC02BA
:101020009093DD02A093DE02B093DF02BF91AF91F7
:101030009F918F913F912F910F900FBE0F901F9016
:1010400018951F920F920FB60F9211242F933F9372
:101050004F935F936F937F938F939F93AF93BF93C0
:10106000EF93FF93E0910201F09103010995FF9145
:10107000EF91BF91AF919F918F917F916F915F9110
:101080004F913F912F910F900FBE0F901F90189589
:101090001F920F920FB60F9211242F933F934F93ED
:1010A0005F936F937F938F939F93AF93BF93EF93D0
:1010B000FF93E0910001F09101010995FF91EF91FB
:1010C000BF91AF919F918F917F916F915F914F9160
:1010D0003F912F910F900FBE0F901F901895609326
:1010E0001602709317028093180290931902DC0184
:1010F000CB01845D9E4FAF4FBF4F80930E02909304
:101100000F02A0931002B093110282E090E090933E
:101110000D0280930C020E94CB0760931202709321
:101120001302809314029093150208956F927F9298
:101130008F929F92AF92BF92CF92DF92EF92FF92E7
:101140000F931F93CF93DF93EC01EE81AE2FB0E0AE
:1011500020E833E341EE51E00E94961F4B015C0111
:1011600022EB37E0FD0104E610E080E9E82EFF24E1
:10117000F394C901825B97408E179F07DCF4C90185
:1011800083709927892B99F4C901B8010E9408211D
:10119000892B31F4C901B7010E940821892B39F448
:1011A00080E8880E81E5981E81E0A81EB11C2F5FA3
:1011B0003F4FDFCF6D80712CEE54F84FCF0164E6C6
:1011C00070E00E9408217C01CF0160E971E00E947B
:1011D00008216C0101E010E0E370FF2706151705F8
:1011E0002CF50230110581F4309771F4E114F1040B
:1011F00019F4C114D10441F480E8880E8BE3981EE1
:1012000086E2A81EB11C0FC0D801A75FBE4FAC91EB
:10121000B0E020E831E541E050E00E94961F860EE4
:10122000971EA81EB91E0F5F1F4FD8CF49812A8174
:1012300030E0A0E1BEE00E94D81F6B017C01242FAA
:1012400030E0ACE3B0E00E94D81FDC01CB018C0D94
:101250009D1DAE1DBF1D28816C017D01C20ED11CDC
:10126000E11CF11CAC81B0E0119720E831E541E0D0
:1012700050E00E943E21DC01CB018C0D9D1DAE1D76
:10128000BF1DBC01CD01680D791D8A1D9B1DDF911D
:10129000CF911F910F91FF90EF90DF90CF90BF9073
:1012A000AF909F908F907F906F9008956F927F92F4
:1012B0008F929F92AF92BF92CF92DF92EF92FF9266
:1012C0000F931F93CF93DF93EA012CE3C22ED12C0F
:1012D000E12CF12CA70196010E941C216883CA0110
:1012E000B901A70196010E941C216983CA01B901B5
:1012F00028E130E040E050E00E941C2169017A01C1
:101300006A83CA01B9016C5F7F4F8F4F9F4F27E0FF
:1013100030E040E050E00E941C216F5F6B83812C25
:10132000912C540140E034E6632E712C00E911E069
:10133000242F30E02E54384FF901E370FF27309707
:1013400089F4C901B3010E940821892B31F4C90134
:10135000B8010E940821892B29F48EE691E0A0E0D3
:10136000B0E004C08DE691E0A0E0B0E0880E991EE8
:10137000AA1EBB1ED501C401AA27BB27C816D906C1
:10138000EA06FB0610F04F5FD3CF4E83309799F4F7
:10139000C90164E670E00E940821892B39F4C90173
:1013A00060E971E00E940821892B29F48EE691E022
:1013B000A0E0B0E004C08DE691E0A0E0B0E0881AC3
:1013C000990AAA0ABB0AC818D908EA08FB08C90181
:1013D00064E670E00E9408218C01C90160E971E0B7
:1013E0000E940821AAE0B1E020E0213041F43097CA
:1013F00051F40115110529F4009729F402C04C910C
:1014000003C04DE101C04CE150E060E070E0C41663
:10141000D506E606F70640F0C41AD50AE60AF70A2A
:101420002F5F11962C3009F72F5F2D83C394CC8248
:10143000DF91CF911F910F91FF90EF90DF90CF90B0
:10144000BF90AF909F908F907F906F900895CF92B4
:10145000DF92EF92FF92C090D302D090D402E0903E
:10146000D502F090D6026C157D058E059F0571F0B2
:101470006B017C014AE152E00E945609C092D302FE
:10148000D092D402E092D502F092D602FF90EF9073
:10149000DF90CF9008951F920F920FB60F921124F4
:1014A0008F93EF93FF93F894A89584B7877F84BFB9
:1014B000E0E6F0E080818861808310827894E0919A
:1014C000F703F091F80381E08287FF91EF918F910C
:1014D0000F900FBE0F901F901895982F92959F70A8
:1014E0002AEF929F800D112408951F920F920FB63C
:1014F0000F9211242F933F934F935F936F937F939A
:101500008F939F93AF93BF93EF93FF93E0914A0222
:10151000F0914B02309709F451C0968DA685B7859E
:10152000858591FF04C09C91892329F447C09C9133
:10153000892309F043C0A389B4899C91858980954A
:1015400089238C93868997890197F1F7608D718D36
:10155000A685B785558538E020E0CB010197F1F7E6
:10156000822F90E095958795282F4C91452309F07F
:101570002068315091F7868D81FD20958091480239
:1015800090E001968F73992730914902381749F0FE
:10159000A0914802B0E0AD56BD4F2C938093480215
:1015A00003C0868D8160868F828D938D0197F1F7C0
:1015B000A389B4899C918589892B8C93FF91EF91A4
:1015C000BF91AF919F918F917F916F915F914F915B
:1015D0003F912F910F900FBE0F901F901895E091A3
:1015E0004A02F0914B02E817F90769F4A389B4891C
:1015F0009C918589809589238C9310924B0210923F
:101600004A0281E0089580E008951F920F920FB67C
:101610000F9211242F933F934F935F936F937F9378
:101620008F939F93AF93BF93EF93FF938091B900F4
:10163000887F803609F49CC068F5883209F45BC065
:1016400090F4803109F454C038F4882309F4F6C0CA
:10165000883009F44DC0F6C0883109F44CC080329E
:1016600009F45DC0EFC0803409F468C048F48033E9
:1016700009F455C0883309F0E5C080932403D8C02D
:10168000803509F44FC0883509F45DC0883409F00D
:10169000D9C0D6C0883909F4C7C0A8F4883709F47E
:1016A00067C038F4883609F463C0803709F460C035
:1016B000C9C0883809F4B8C0803909F45FC08038DF
:1016C00009F0C0C05BC0803B09F486C038F4803AA2
:1016D00009F466C0883A09F47FC0B4C0803C09F4BC
:1016E000A7C0883C09F4A4C0883B09F48AC0AAC0FA
:1016F0008091010310C090912303809122039817D9
:1017000070F5E091230381E08E0F80932303F0E0D6
:10171000EE5FFC4F80818093BB0085EC86C0809398
:1017200024038EC0E091230381E08E0F8093230376
:101730008091BB00F0E0EE5FFC4F8083909123032B
:10174000809122036EC0E091230381E08E0F80938D
:1017500023038091BB00F0E0EE5FFC4F808380911B
:10176000E50381116DC081E08093E40384EA61C0E8
:1017700083E08093E60310929202CFCF8091920291
:10178000803208F051C0E091920281E08E0F809388
:1017900092028091BB00F0E0EE58FD4F8083BDCFF8
:1017A00085EC8093BC001092E60380919202803217
:1017B00030F4E0919202F0E0EE58FD4F108260911B
:1017C000920270E0E0917002F091710282E792E083
:1017D00009951092920236C084E08093E60310923D
:1017E0006F0210926E02E0916C02F0916D02099509
:1017F00080916E02811105C081E080936E0210928B
:101800004C02E0916F0281E08E0F80936F02F0E056
:10181000E45BFD4F80818093BB0090916F028091CB
:101820006E02981708F479CF85E88093BC000AC04F
:1018300085EC8093BC001092E60304C01092240350
:101840000E94E105FF91EF91BF91AF919F918F9120
:101850007F916F915F914F913F912F910F900FBEAC
:101860000F901F9018950C94A412CF92DF92EF92D4
:10187000FF920F931F93CF93DF93CDB7DEB7CA5478
:10188000D1090FB6F894DEBF0FBECDBF8C01D62EA6
:10189000C72E7A0123961FAE1EAE239725961FAE44
:1018A0001EAE259727961FAE1EAE279740E050E04C
:1018B0006BEF71E0CE018F5B9F4F0E947416023078
:1018C000110561F00330110571F00130110509F0C7
:1018D000AEC143E050E069EA71E009C043E050E086
:1018E0006DEA71E004C047E050E061EB71E0CE01C9
:1018F0008F5B9F4F0E94741644EF51E063E376E0E4
:1019000086E396E00E94B91344EF51E06CE176E083
:101910008FE196E00E94B91364EE75E087E294E0EF
:101920000E94BB1627964EAD5FAD279723966EADEE
:101930007FAD239787E294E00E9449166DED75E034
:1019400087E294E00E9499178AED95E00E94651461
:1019500044EF51E06FEB75E082EC95E00E94B91323
:1019600044EF51E063E975E086E995E00E94B91320
:101970006FE675E087E294E00E94BB1669EB71E0C8
:1019800087E294E00E94DF166DE675E087E294E05E
:101990000E94991769E475E087E493E00E94BB1602
:1019A00068E375E087E493E00E94BB1666E375E0A8
:1019B00087E493E00E94991783E395E00E94651401
:1019C00062E275E087E493E00E94BB166CEF74E07E
:1019D00087E493E00E94BB1627964EAD5FAD279734
:1019E00023966EAD7FAD239787E493E00E9449165E
:1019F00065EF74E087E493E00E9499178E010F5F12
:101A00001F4FE114F10489F4CF92DF928AED91E047
:101A10009F938F931F930F930E9480230F900F909B
:101A20000F900F900F900F9011C0FF92EF92CF92F6
:101A3000DF9288EE91E09F938F931F930F930E9404
:101A400080230FB6F894DEBF0FBECDBFF801019022
:101A50000020E9F731976F01C01AD10A68EE74E0EF
:101A600087E294E00E94BB160D2C000CEE08FF08E4
:101A7000B701A60187E294E00E943D1762EE74E090
:101A800087E294E00E9499178FED94E00E9465141C
:101A9000C8010E941C16B80187E493E00E948517D4
:101AA00062ED74E087E493E00E94BB16B701A601E3
:101AB00087E493E00E943D176CEC74E087E493E0C8
:101AC0000E949917E0903D05F0903E050E94071393
:101AD00060E874E087E493E00E94BB1664E974E078
:101AE00087E493E00E94BB1641E050E060E070E0C4
:101AF00087E493E00E943D1769EF71E087E493E08B
:101B00000E94DF1664E974E080913F0590914005E2
:101B10000E94BB1600913F051091400541E050E046
:101B200060E070E0C8010E943D1769EF71E0C801F4
:101B30000E94DF1660E084EF91E00E94BD1269E729
:101B400074E087E493E00E94BB1665E374E087E4E9
:101B500093E00E948517B70185E394E00E94671E19
:101B6000892B19F560E080E395E70E94BD1241E002
:101B7000BE01675B7F4F87E894E00E94F2138823E1
:101B8000A1F042E0BE01695B7F4F8CE694E00E94C9
:101B9000F2130BC029968EAD9FAD29970197299618
:101BA0009FAF8EAF2997892BC1F029968EAD9FAD3F
:101BB0002997181619068CF487E294E00E942F05E5
:101BC000892B41F387E294E00E9417059091C000B1
:101BD00095FFFCCF8093C600EFCF6EEB74E087E4F7
:101BE00093E00E94BB162B968EAD9FAD2B970E9463
:101BF0006F176FEA74E087E493E00E94BB162996A2
:101C00008EAD9FAD29970E946F1760913D05709131
:101C10003E0544EF51E083EA94E00E94B91311E0DD
:101C20002B968EAD9FAD2B97883C910509F010E067
:101C300023968EAD9FAD23970E94F521812FC65B21
:101C4000DF4F0FB6F894DEBF0FBECDBFDF91CF914F
:101C50001F910F91FF90EF90DF90CF900895CF925A
:101C6000DF92EF92FF927C010E94CB079B01AC01B7
:101C70002E0D3F1D411D511D69017A010E94CB07A8
:101C80006C157D058E059F0528F487E493E00E947E
:101C9000A304F4CFFF90EF90DF90CF900895CF9200
:101CA000DF92EF92FF920F931F93CF93DF9300D0B9
:101CB000CDB7DEB70E94CE13892BE9F468E574E056
:101CC00087E493E00E94BB160E94CE13892B49F44F
:101CD00060E088E00E94250784EF91E00E942F0ECB
:101CE000F3CF61E088E00E94250761E574E087E4B6
:101CF00093E00E9499176CE374E087E493E00E94FC
:101D00009917109223041092220410922104109229
:101D1000200410921F0410921E048DE991E090930C
:101D200025048093240490911404963108F057C040
:101D30002DEB30E030931F0420931E042BE931E09B
:101D400030932104209320042CE231E030932304CB
:101D50002093220420916800983050F031E09E30AA
:101D600008F430E081E001C0880F3A95EAF701C03D
:101D700084E0822B80936800983038F09E3040F0E9
:101D8000963148F020E030E008C02DE630E005C094
:101D90002BE630E002C02CE630E030931C042093A8
:101DA0001B04983030F481E001C0880F9A95EAF75F
:101DB0000EC0292F30E09E3018F42850310902C09F
:101DC0002E50310981E001C0880F2A95EAF78093EF
:101DD0001D0480912404909125040197F1F78091CE
:101DE000220490912304892B21F180914A02909141
:101DF0004B0224E088309207E1F0009711F00E9436
:101E0000EF0A809126048E7F809326041092480268
:101E10001092490288E094E090934B0280934A022A
:101E2000E0911B04F0911C04908180911D04892B8A
:101E3000808388E094E09093400580933F0561E0C3
:101E4000809133040E94550761E0809133040E9421
:101E500025076AE070E080E090E00E94910760E072
:101E6000809133040E94250764E670E080E090E0F2
:101E70000E94910761E0809133040E9425076AED7A
:101E800072E087E493E00E9499170EE010E08091E1
:101E90003F0590914005DC01ED91FC910084F185B6
:101EA000E02D0995892B61F080913F0590914005C7
:101EB000DC01ED91FC910284F385E02D0995E7CFDB
:101EC00060913D0570913E0544EF51E087ED92E051
:101ED0000E94B913811163C080913F059091400524
:101EE000DC01ED91FC910084F185E02D0995892BB1
:101EF00061F080913F0590914005DC01ED91FC91EE
:101F00000284F385E02D0995E7CF44EF51E061EDC0
:101F100072E084ED92E00E94B913811140C064EF39
:101F200071E080E090E00E9491070150110909F0F2
:101F3000AECF6FE972E087E493E00E949917609159
:101F40003D0570913E0544EF51E08CE992E00E941E
:101F5000B91364E670E080E090E00E949107609120
:101F60003D0570913E0544EF51E089E992E00E9401
:101F7000B91364E670E080E090E00E949107609100
:101F80003D0570913E0544EF51E086E992E00E94E4
:101F9000B91364E670E080E090E00E9491076091E0
:101FA0003D0570913E0544EF51E081E992E00E94C9
:101FB000B91364E670E080E090E00E9491076091C0
:101FC0003D0570913E0544EF51E08CE892E00E949F
:101FD000B913182F882309F4DCC060913D05709176
:101FE0003E0544EF51E082E892E00E94B91364E6B6
:101FF00070E080E090E00E9491070E9407136BE779
:1020000072E087E493E00E94BB166CEF71E087E416
:1020100093E00E9485176CEF71E080913F059091ED
:1020200040050E94851761E084EF91E00E94BD1297
:1020300064E772E087E493E00E94BB1665E374E016
:1020400087E493E00E94851769E672E085E394E0F7
:102050000E94791E892B11F083E027C06EE572E0A3
:1020600085E394E00E94791E892B11F082E01DC067
:1020700063E572E085E394E00E94791E892B11F0FC
:1020800081E013C063E472E085E394E00E94791E6E
:10209000892B11F084E009C063E372E085E394E0EA
:1020A0000E94791E892B19F085E080933404809179
:1020B0003404813081F56CE272E087E493E00E94A1
:1020C000BB1660E072E087E493E00E94851760E051
:1020D00072E080913F05909140050E94851761E074
:1020E00084EF91E00E94BD1265E272E087E493E024
:1020F0000E94BB1665E374E087E493E00E948517B5
:102100006DE172E085E394E00E94791E892B19F05D
:1021100086E08093340460913D0570913E0544EF64
:1021200051E086E092E00E94B91366E074E087E433
:1021300093E00E94BB160E94CB076B017C01B0E3C9
:10214000CB0EB5E7DB1EE11CF11C6AEE73E087E401
:1021500093E00E94BB1621E0AE014F5F5F4F6BEF33
:1021600072E083E093E00E942514882311F09981A6
:1021700001C090E09B7F9130D9F00E94CB076C1595
:102180007D058E059F0560F48AEF90E00E942F0E7A
:10219000E2CF64E174E087E493E00E9499175FC0A6
:1021A0006AEB73E087E493E00E94991710E057C050
:1021B00064EB73E087E493E00E94991720E0AE019E
:1021C0004F5F5F4F6CE073E083E193E00E94251462
:1021D000882309F442C009816DEA73E087E493E043
:1021E0000E94BB16402F50E060E070E02AE087E4D8
:1021F00093E00E94F41669EF71E087E493E00E9497
:10220000DF1688EB9BE00E942F0E063018F10E942B
:1022100086140E944C14813011F105E06DE973E0E1
:1022200087E493E00E94991780ED97E00E942F0EBB
:102230000E9486140E944C14813019F461E973E005
:10224000AACF66E773E087E493E00E94BB160150D3
:1022500029F705C065E473E09ECF00E0BDCF812F74
:102260000F900F90DF91CF911F910F91FF90EF9002
:10227000DF90CF90089588E893E10E942F0E40E20E
:102280005EE462E373E08AE393E00E94B91388237B
:10229000C1F060913D0570913E0540E157E285E255
:1022A00093E00E94B913882361F060913D0570911D
:1022B0003E0540E157E28AE193E00E94B9138111A3
:1022C0000AC00E944C148130D1F46DEE71E087E4B5
:1022D00093E00E94991784EF91E00E942F0E0E94D4
:1022E000CE13019779F444EF51E062ED71E085ED92
:1022F00091E00E94B91361E088E00C94250760EE3C
:1023000071E0E5CF08950F931F930E94CB07609370
:102310002F04709330048093310490933204E09141
:102320002704F09128040484F585E02D87E294E0E9
:10233000099597FF1FC00E94CB0700912F041091B1
:1023400030042091310430913204DC01CB01801B38
:10235000910BA20BB30B00912B0410912C04209134
:102360002D0430912E0480179107A207B307B8F20D
:102370008FEF9FEF1F910F910895382F2091E70362
:1023800090914603213208F049C08091E603811103
:10239000FCCF42E04093E6033093E5033FEF3093F8
:1023A00024031092230320932203A6E2B3E042E029
:1023B00053E0FA013E2F341B321718F43D9131934C
:1023C000F9CF1092010320910103990F922B909362
:1023D00001039091E403913061F41092E403909131
:1023E00001039093BB009091BC0093FDF8CF95EC56
:1023F00001C095EE9093BC009091E6039230E1F31A
:10240000909124039F3F79F080912403803241F022
:1024100080912403803331F084E005C081E003C063
:1024200082E001C083E01092E8031092E70310926B
:1024300025030895CF93C62F91E09093250398E646
:10244000909346031092E8031092E703682F8BEEF7
:1024500093E00E946F066C2F8BEE93E00E946F0654
:1024600081E0CF910C94BD119091E6039111FCCFC6
:1024700091E09093E6039093E5032FEF20932403DC
:1024800010922303260F209322039093010390912F
:102490000103880F892B809301038091E40381302D
:1024A00061F41092E403809101038093BB0080915A
:1024B000BC0083FDF8CF85EC01C085EE8093BC00A5
:1024C0008091E6038130E1F380912303861710F4B5
:1024D00060912303A2E0B3E020EE32E0F9018E2FF9
:1024E000821B861718F48D918193F9CF862F08955A
:1024F0000F931F93CF938B0191E09093250398E660
:10250000909346031092E8031092E703682F8BEE36
:1025100093E00E946F0681E00E94BD11C82F8111D7
:102520000EC061E088E60E9434121092EA038093A4
:10253000E9038BEE93E00E942306F80180838C2F41
:10254000CF911F910F910895CF93DF931F92CDB735
:10255000DEB7BE016F5F7F4F8FE00E947812698106
:1025600060FF06C06E7F8FE00E941A1281E001C0FA
:1025700080E00F90DF91CF910895FF920F931F930A
:10258000CF93DF93F62E8C01C0E0D0E0011511054A
:1025900099F1CE3FD10580F580913F05909140059E
:1025A000DC01ED91FC910084F185E02D0995892BEA
:1025B000C9F080913F0590914005DC01ED91FC91BF
:1025C0000284F385E02D09958D3031F38A3021F4B2
:1025D000209711F3FF2081F0FE01E95DFB4F868714
:1025E0002196DACF0150110939F061E070E080E006
:1025F00090E00E949107CACFFE01E95DFB4F16866D
:102600008C2FDF91CF911F910F91FF900895CF9361
:10261000DF93C0E0D0E0CE010196A897A8F4EC01CA
:1026200087E294E00E942F05892B39F087E294E03D
:102630000E941705C0E0D0E0F3CF61E070E080E0D9
:1026400090E00E949107E7CFDF91CF9108950F931B
:102650001F93CF93DF93EC018B010E9407136DE36F
:1026600077E087E493E00E94BB16BE0187E493E025
:102670000E949917BE0180913F05909140050E94EC
:10268000991760E0C8010E94BD12C82F66E377E089
:1026900087E493E00E94BB1665E374E087E493E06F
:1026A0000E9485178C2FDF91CF911F910F91089574
:1026B000EF92FF920F931F93CF93DF937C018B01D7
:1026C0000E94071368E077E087E493E00E94BB165E
:1026D000B70187E493E00E94BB1662E287E493E0CF
:1026E0000E94B416B80187E493E00E94BB1662E230
:1026F00087E493E00E94B41669EF71E087E493E009
:102700000E94DF16CFE3D5E0B701888199810E944E
:10271000BB1662E2888199810E94B416B801888153
:1027200099810E94BB160990D881C02D62E2CE012A
:102730000E94B41669EF71E0CE010E94DF1660E0DE
:1027400080E197E20E94BD12C82F61E077E087E444
:1027500093E00E94BB1665E374E087E493E00E9477
:1027600085178C2FDF91CF911F910F91FF90EF90E4
:102770000895CF93DF93EB01BA010E9427138823BA
:1027800041F0BE0185E394E00E94671E21E0892BA1
:1027900009F020E0822FDF91CF910895CF93DF934E
:1027A000EBE2F7E08491E5E7F7E0D491E1E6F7E0CA
:1027B000C491CC2391F081110E94FC06EC2FF0E033
:1027C000EE0FFF1FE25BF84FA591B491EC91ED2362
:1027D00081E090E021F480E002C080E090E0DF91B1
:1027E000CF910895DF92EF92FF920F931F93CF93B3
:1027F000DF938C017B01D42EBC0185E394E00E9421
:10280000791EEC01892BC1F0C8010E94701E8C0F4B
:102810009D1FC0E0CD1549F06CE270E00E94652379
:10282000009751F00196CF5FF5CF0E94491EF70146
:102830009183808381E001C080E0DF91CF911F917F
:102840000F91FF90EF90DF900895EF92FF920F931A
:102850001F93CF93DF931F92CDB7DEB77B018A0121
:1028600064EF71E029830E9427132981422FB80168
:10287000C7010E94F213182F882329F060E084EF2B
:1028800091E00E94BD12812F0F90DF91CF911F9197
:102890000F91FF90EF900895CF93DF9300D0CDB7C5
:1028A000DEB720E0AE014F5F5F4F6FE077E088E179
:1028B00097E00E942514882311F0898101C08FEFD1
:1028C0000F900F90DF91CF910895CF93DF93EC019C
:1028D00060E080E197E20E94BD126AEF76E087E453
:1028E00093E00E94BB1665E374E087E493E00E94E6
:1028F0008517BE0185E394E00E94671E21E0892BC5
:1029000009F020E0822FDF91CF910895CF93DF93DC
:1029100040E25EE467EE76E08FEE96E00E94B91347
:1029200060913D0570913E0540E157E28CED96E0E7
:102930000E94B913882309F402C160913D0570918A
:102940003E0540E157E28EEB96E00E94B9138823E2
:1029500009F4F5C060913405709135056115710574
:10296000C9F460913D0570913E0540E355E789E566
:1029700096E00E94B913882309F4E1C060913D05F7
:1029800070913E0540E157E280E596E0DF91CF91FE
:102990000C94B913C0913D05D0913E058AEA96E0AA
:1029A0000E945813BE0185E394E00E94671E892BA4
:1029B00009F0C5C00E94071360EA76E080913F05E8
:1029C000909140050E94BB166091340570913505C9
:1029D00080913F05909140050E94BB16809136057D
:1029E00090913705892B91F067E072E080913F0567
:1029F000909140050E94DF16609136057091370571
:102A000080913F05909140050E94BB16809138054A
:102A100090913905892B91F067E072E080913F0534
:102A2000909140050E94DF1660913805709139053C
:102A300080913F05909140050E94BB1669E072E0CD
:102A400080913F05909140050E94851769E976E0E5
:102A500087E493E00E94BB166FE876E087E493E09A
:102A60000E94BB16609134057091350587E493E0B0
:102A70000E94BB168091360590913705892B71F025
:102A800067E072E087E493E00E94DF16609136050C
:102A90007091370587E493E00E94BB16809138055A
:102AA00090913905892B71F067E072E087E493E03B
:102AB0000E94DF16609138057091390587E493E034
:102AC0000E94BB1669E072E087E493E00E948517DC
:102AD00080913D0590913E050E946514882379F10F
:102AE00060913605709137056115710541F460916B
:102AF0003805709139056115710589F432CFC0919F
:102B00003D05D0913E058AE796E00E945813BE012C
:102B100085E394E00E94671E892B49F310C0C091A1
:102B20003D05D0913E0586E696E00E945813BE0111
:102B300085E394E00E94671E892B09F412CF80E0A0
:102B4000DF91CF910895FF920F931F93CF93DF935F
:102B500000D000D0CDB7DEB70E948311FC0197FDF5
:102B600011C08D32910591F0C0970A9778F0E091ED
:102B70002704F09128040284F385E02D87E294E095
:102B80000995EACF60E070E0CB014CC020E030E076
:102B9000A901F12CE130F105F1F0ED32F105C9F0B8
:102BA000CF01C0970A97B8F4AAE0B0E00E94961F40
:102BB0008F01FF0F220B330BDC01CB01800F911F24
:102BC000A21FB31F9C01AD012053310941095109D6
:102BD00002C0FF24F394E0912704F09128040284BA
:102BE000F385E02D87E294E029833A834B835C836D
:102BF00009950E948311FC01C09729813A814B817C
:102C00005C810A9738F2E130F10521F2FF2041F0B2
:102C100066277727CB01621B730B840B950B02C0D1
:102C2000CA01B9010F900F900F900F90DF91CF91D3
:102C30001F910F91FF900895CF93DF93EC010E94B5
:102C4000071369E476E087E493E00E94BB16BE01B7
:102C500087E493E00E948517BE0180913F05909123
:102C600040050E94851760E084EF91E00E94BD124C
:102C7000C82F62E476E087E493E00E94BB1665E328
:102C800074E087E493E00E9485178C2FDF91CF9149
:102C90000895CF92DF92EF92FF920F931F93CF93FD
:102CA000DF936C017A018B01C0E0D0E0CE15DF0527
:102CB00089F0D8016D918D01D601ED91FC910190C3
:102CC000F081E02DC6010995892B11F47E0102C027
:102CD0002196ECCFC701DF91CF911F910F91FF900B
:102CE000EF90DF90CF900895EF92FF920F931F9394
:102CF000CF93DF93EC017B018A0188819981009752
:102D000029F02A813B8124173507F8F4B8016F5F59
:102D10007F4F0E948D22009759F0998388831B83EF
:102D20000A832C813D81232B81F4FC0110820DC08C
:102D300088819981009711F00E94F52119821882EB
:102D40001D821C821B821A8207C01D830C83B7015F
:102D5000888199810E947923CE01DF91CF911F91C3
:102D60000F91FF90EF900895DC01ED91FC9101909F
:102D7000F081E02D0994EF92FF920F931F93CF9370
:102D8000DF938C017B01C0E0D0E0F701EC0FFD1F69
:102D90006491662361F0D801ED91FC910190F0817E
:102DA000E02DC8010995892B11F02196EECFCE01B7
:102DB000DF91CF911F910F91FF90EF9008956115D2
:102DC000710579F0FB0101900020E9F73197AF011F
:102DD000461B570BDC01ED91FC910280F381E02D45
:102DE000099480E090E008954F925F926F927F92F5
:102DF000EF92FF920F931F93CF93DF93CDB7DEB780
:102E0000A1970FB6F894DEBF0FBECDBF7C01FA01CB
:102E1000CB0119A2223008F42AE08E010F5D1F4F6A
:102E2000422E512C612C712CBF01A30192010E94F2
:102E30001C21F901CA01015011096A3014F4605DC6
:102E400001C0695CD8016C93232B242B252B61F7DF
:102E5000B801C7010E94DF16A1960FB6F894DEBF35
:102E60000FBECDBFDF91CF911F910F91FF90EF90DB
:102E70007F906F905F904F900895CF92DF92EF9286
:102E8000FF920F931F93CF93DF9377FF1DC06A01CB
:102E90007B01EC016DE20E94B4168C01442755279A
:102EA000BA014C195D096E097F092AE0CE010E9422
:102EB000F416800F911FDF91CF911F910F91FF901A
:102EC000EF90DF90CF9008952AE0DF91CF911F918E
:102ED0000F91FF90EF90DF90CF900C94F416CF936A
:102EE000DF93AC01990F660B770B87E493E00E94A8
:102EF0003D17EC0169EF71E087E493E00E94DF1673
:102F00008C0F9D1FDF91CF9108950F931F93CF9347
:102F1000DF93EC010E94DF168C0169EF71E0CE01B6
:102F20000E94DF16800F911FDF91CF911F910F91AB
:102F300008950F931F93CF93DF93EC010E94BB166C
:102F40008C0169EF71E0CE010E94DF16800F911FA6
:102F5000DF91CF911F910F910895CF93DF93CDB75C
:102F6000DEB7A5970FB6F894DEBF0FBECDBF78943D
:102F700084B5826084BD84B5816084BD85B582607E
:102F800085BD85B5816085BD80916E00816080932F
:102F90006E00109281008091810082608093810098
:102FA00080918100816080938100809180008160A8
:102FB000809380008091B10084608093B100809103
:102FC000B00081608093B00080917A00846080932B
:102FD0007A0080917A00826080937A0080917A00F2
:102FE0008E7F80937A0080917A00806880937A0047
:102FF0001092C10062E082E00E94550761E088E023
:103000000E94550761E086E00E94550761E083E079
:103010000E945507E0915703F091580382E08083A6
:10302000E0915303F09154031082E0915503F09125
:10303000560380E1808310925F03E0915B03F0917F
:103040005C0386E08083E0915903F0915A0380810C
:1030500080618083E0915903F0915A0380818860F8
:103060008083E0915903F0915A03808180688083C6
:10307000E0915903F0915A0380818F7D80836BE842
:1030800071E087E493E00E94BB166EE571E087E48F
:1030900093E00E94851763E671E087E493E00E9465
:1030A000DF1669E871E087E493E00E94BB166FE6E3
:1030B00071E087E493E00E948517BE016F5F7F4F48
:1030C0008EE00E947812698164608EE00E941A127C
:1030D00060E087E00E941A1260E888E00E941A12FD
:1030E00060E889E00E941A1261E88AE00E941A12E0
:1030F0000E94A412BE016F5F7F4F8EE00E94781283
:10310000698161608EE00E941A1283E39CE09093D3
:10311000010180930001809169008C7F826080931F
:103120006900E89A789460E083E00E9425070E9495
:103130004F0E88EE93E00E942F0E65E571E087E464
:1031400093E00E94991787E294E00E942F05892B53
:1031500051F087E294E00E941705682F87E493E01E
:103160000E94B416F0CF88E791E00E941C160E94DE
:10317000A3150E94A31569A37AA38BA39CA30E9405
:10318000A3154B015C017B010E94A3156C8F7D8F01
:10319000262E7A8F0E94A3152B013C016B010E9401
:1031A000A3156E8F7F8F8B010E94A31568A3362E07
:1031B0007B8F0E94A315262FC401805E97408397C2
:1031C00018F4083111058CF062E471E087E493E0B3
:1031D0000E94991728A13E8C4F8D4B8F8201CC8C79
:1031E000DD8C282C9A8EE9A0FAA0C701805E97405A
:1031F000839720F4083111050CF474C065E271E086
:1032000087E493E00E94991760913D0570913E0517
:1032100044EF51E085E890E00E94B9138823F1F172
:103220006BE770E080913F05909140050E94BB16CE
:1032300069E871E080913F05909140050E94BB16BE
:1032400067E770E080913F05909140050E949917D3
:1032500060E084EF91E00E94BD1267E971E085E3D0
:1032600094E00E947023892BC9F460913D05709110
:103270003E0540E157E28FE690E00E94B9138823B3
:1032800069F060E080E197E20E94BD1240E0BE017B
:103290006F5F7F4F88E690E00E94F21366E071E076
:1032A00087E493E00E94991788E99AE30E942F0E21
:1032B0006DEF70E087E294E00E9499170E94A315D9
:1032C0007B010E94A315262E7A8F0E94A3156B0105
:1032D0000E94A3158B010E94A315362E7B8F0E949E
:1032E000A315262FC70140978232910528F0805DF3
:1032F0009740829708F062C1093F8FEF180734F4B6
:10330000015E1F4F91E0C91AD1080BC001311105B0
:1033100034F001511109EFEFCE1ADE0A02C0095F45
:103320001F4F65EE70E087E493E02DA30E94BB166B
:103330004B8D4F933F921F930F93FF92EF924A8DC5
:103340004F932F92DF92CF928AE991E09F938F93D0
:10335000CE0101965C019F938F930E948023B5015B
:1033600087E493E00E94851766ED70E087E493E0C0
:103370000E9499170FB6F894DEBF0FBECDBF2DA1E6
:10338000F4E6EF16F1042CF042EBE41A47E0F40AFD
:1033900003C08EE1E80EF11CE092200220921F0291
:1033A000C0921E0200931C0230921B0220931A024C
:1033B0008AE192E00E9496080E946F080E94CB0763
:1033C000C0901202D0901302E0901402F090150207
:1033D0008B019C010C191D092E093F0980911602D1
:1033E00090911702A0911802B0911902083E134063
:1033F00021053105D0F00196A11DB11D8093160263
:1034000090931702A0931802B0931902B701A60176
:1034100048515C4F6F4F7F4F4093120250931302FD
:103420006093140270931502C9CF40910E0250911F
:103430000F02609110027091110284179507A60780
:10344000B70788F1E0912102F0912202309759F1FB
:103450000995611571058105910519F00E946F08A4
:1034600022C08091160290911702A0911802B0918B
:103470001902845D9E4FAF4FBF4F80930E02909311
:103480000F02A0931002B093110281E090E020910E
:103490000C0230910D02232B11F480E090E0909308
:1034A0000D0280930C0260911602709117028091B8
:1034B000180290911902AE014E5E5F4F0E945609AC
:1034C00081E08093250388E6809346031092E80309
:1034D0001092E70360E08BEE93E00E946F062A896A
:1034E0001AE0822F612F0E94FC20682F660F860F42
:1034F000682F660F620F8BEE93E00E946F062B8998
:10350000822F612F0E94FC20682F660F860F682F84
:10351000660F620F8BEE93E00E946F062C89822F5C
:10352000612F0E94FC20682F660F860F682F660FA0
:10353000620F8BEE93E00E946F066D898BEE93E035
:103540000E946F062E89822F612F0E94FC20682F17
:10355000660F860F682F660F620F8BEE93E00E9456
:103560006F062F89822F612F0E94FC20682F660F23
:10357000860F682F660F620F8BEE93E00E946F0636
:10358000288D2E51822F612F0E94FC20682F660FFC
:10359000680F660F620F8BEE93E00E946F0681E06A
:1035A0000E94BD11BE01675E7F4F8FE00E947812BE
:1035B000698D6F778FE00E941A1206C062E970E091
:1035C00087E493E00E94991788EC90E00E942F0E08
:1035D0000E943B1180ED97E00E942F0E54E0452E93
:1035E000512C65EF262E64E0362EF1E0F093250392
:1035F00028E6209346031092E8031092E70360E068
:103600008BEE93E00E946F0681E00E94BD1188233B
:1036100031F08093230260E070E0CB013FC067E0AF
:1036200088E60E9434121092EA038093E9038BEE3D
:1036300093E00E9423068F770E946D0A89838BEEA8
:1036400093E00E9423060E946D0A8A838BEE93E02A
:103650000E9423068F7B0E946D0A8B838BEE93E082
:103660000E9423068C838BEE93E00E9423060E9427
:103670006D0A8D838BEE93E00E9423068F770E9464
:103680006D0A8E838BEE93E00E9423060E946D0AE2
:10369000825E8F83CE0101960E9496086093440259
:1036A0007093450280934602909347020E94270A36
:1036B00040911C0250E060E070E087E493E00E94DB
:1036C0003D1766EC71E087E493E00E94BB166091C1
:1036D00044027091450280914602909147020E94F7
:1036E000270A80911B0290E00A9734F464EC71E0A1
:1036F00087E493E00E94BB166091440270914502FA
:1037000080914602909147020E94270A80911B02F5
:1037100090E00E946F170091420210914302043022
:1037200011050CF066C0F801EE0FFF1FEE0FFF1F32
:10373000E25DFD4F8091440290914502A0914602C6
:10374000B091470280839183A283B38361E083E0D9
:103750000E94250788EB9BE00E942F0E40E44093D7
:103760007C0080917A00806480937A0080917A0056
:1037700086FDFCCF609178008091790070E0782B15
:10378000CB018656910985339340A8F4072E000C8F
:10379000880B990B0E949D1E2DEC3CEC4CEC52E4E6
:1037A0000E94E71F20EF37EA46E950E40E945420C8
:1037B0006B017C0103C0C12CD12C760160E083E059
:1037C0000E942507000F111F0C5D1D4FC701B60198
:1037D0000E94C620665F7F4FF801718360838091ED
:1037E00042029091430201969093430280934202D9
:1037F0008BC00430110509F087C024E2E22E22E0DC
:10380000F22EF701819091907F010E944F0E62EAA3
:1038100071E087E493E00E94991722E0AE014F5FC8
:103820005F4F64E971E08BE991E00E942514B401D7
:10383000092C000C880B990B0E949D1E2FED3FE474
:103840004DE85DE30E94D81E5B016C010E94C6201A
:103850003B01072E000C880B990B0E949D1E9B01BB
:10386000AC01C601B5010E94E71F20E030E04AE745
:1038700054E40E94D81E0E94C6205B018CE49DE1A6
:103880000E942F0E95E0C92ED12C00914402109178
:1038900045022091460230914702A501B30181E023
:1038A00090E00E94350C882319F100914402109198
:1038B0004502209146023091470240E050E0B401B9
:1038C00082E090E00E94350C882391F00091440240
:1038D00010914502209146023091470269817A8118
:1038E00040E050E083E090E00E94350C811104C07C
:1038F000F1E0CF1AD10849F60E943B112EE2E21600
:1039000022E0F20609F07DCFE0914202F0914302FD
:10391000EE0FFF1FEC5DFD4F40815181052E000C25
:10392000660B770B87E493E00E943D176EEB71E026
:1039300087E493E00E94991787E493E00E94A30430
:1039400060E087E00E941A1260E888E00E941A1284
:1039500060E889E00E941A1261E88AE00E941A1267
:103960000E94A412BE016F5F7F4F8EE00E9478120A
:10397000698161608EE00E941A125092FA034092AF
:10398000F90384EF91E00E942F0E60E082E00E9434
:10399000550761E082E00E94250783B7817F9091FF
:1039A000F903892B83BF83B7816083BF3092010104
:1039B00020920001809169008C7F82608093690071
:1039C000E89A789483B7816083BF889583B78E7FA8
:1039D00083BF83B78E7F83BFE89884EF94E0909392
:1039E0000101809300010E94C504FFCD8EE391E0A8
:1039F000909309048093080488E094E00C94EF0A03
:103A0000CF92DF92EF92FF92CF9310924A031092DF
:103A1000490398EEC92E93E0D92EE12CF12CC092E7
:103A20004B03D0924C03E0924D03F0924E038AE197
:103A300091E0909348038093470385EC90E0909346
:103A400054038093530384EC90E090935603809347
:103A5000550380EC90E0909358038093570381ECDA
:103A600090E090935A038093590382EC90E09093F6
:103A70005C0380935B0386EC90E090935E038093FD
:103A80005D03109260031092610310926203109222
:103A900063031092EA031092E9031092E803109274
:103AA000E7031092E603C1E0C093E5031092E4033C
:103AB00061E082E10E94250761E083E10E94250721
:103AC0008091B9008E7F8093B9008091B9008D7F7D
:103AD0008093B90080E28093B80085E48093BC00B5
:103AE0001092EE031092ED03C092EF03D092F00318
:103AF000E092F103F092F2038CE291E09093EC03F8
:103B00008093EB0310922A0410922904C0922B0494
:103B1000D0922C04E0922D04F0922E0480E591E0E6
:103B2000909328048093270485E08093330488E8E9
:103B300097E09093350580933405109237051092E5
:103B400036051092390510923805109240051092F2
:103B50003F0510923A0583E897E090933C058093E7
:103B60003B0580E897E090933E0580933D051092D9
:103B70000B0410920A04C0920C04D0920D04E0923F
:103B80000E04F0920F048EE391E090930904809369
:103B9000080410921F0410921E0410922104109227
:103BA00020041092230410922204109225041092F3
:103BB0002404809126048E7F8D7F80932604869531
:103BC0008170682F6C2786E00E94250761E086E0FF
:103BD0000E945507E2E7F7E0E491E0931804EEE570
:103BE000F7E0E491F0E0EE0FFF1FEC5BF84F8591FA
:103BF000949190931A048093190460E087E00E94E6
:103C000055078091260481FD04C061E087E00E9491
:103C1000250787E080931404E3E7F7E0E491E0935D
:103C20001504EFE5F7E0E491F0E0EE0FFF1FE25B33
:103C3000F84F85919491909317048093160489EF1F
:103C400093E09093F8038093F7031092FB03109294
:103C5000FC031092FD031092FE0380E090E0A0E8C8
:103C6000BFE38093FF0390930004A0930104B093FB
:103C70000204109205041092040484E690E09093EC
:103C8000070480930604CF91FF90EF90DF90CF90D0
:103C90000895FC0188279927E89421912032E9F3BF
:103CA000293010F02E30C8F32B3241F02D3239F488
:103CB000689404C00E94931E820F911D219120538D
:103CC0002A30C0F31EF4909581959F4F0895FB0113
:103CD000DC018D91059080190110D9F3990B08959D
:103CE000FC0105900020E9F7809590958E0F9F1FAD
:103CF0000895FB0155915523A9F0BF01DC014D91B9
:103D000045174111E1F759F4CD010590002049F024
:103D10004D9140154111C9F3FB014111EFCF81E0F5
:103D200090E0019708957AE0979F902D879F802DCE
:103D3000910D11240895E89409C097FB3EF49095E5
:103D40008095709561957F4F8F4F9F4F9923A9F074
:103D5000F92F96E9BB279395F69587957795679503
:103D6000B795F111F8CFFAF4BB0F11F460FF1BC047
:103D70006F5F7F4F8F4F9F4F16C0882311F096E9DA
:103D800011C0772321F09EE8872F762F05C0662388
:103D900071F096E8862F70E060E02AF09A95660F41
:103DA000771F881FDAF7880F9695879597F90895FA
:103DB0000E94EB1E0C945C1F0E944E1F38F00E9464
:103DC000551F20F0952311F00C94451F0C944B1FA8
:103DD00011240C94901F0E946D1F70F3959FC1F3E6
:103DE000950F50E0551F629FF001729FBB27F00DA9
:103DF000B11D639FAA27F00DB11DAA1F649F6627FE
:103E0000B00DA11D661F829F2227B00DA11D621F4C
:103E1000739FB00DA11D621F839FA00D611D221F06
:103E2000749F3327A00D611D231F849F600D211DEA
:103E3000822F762F6A2F11249F5750409AF0F1F06D
:103E400088234AF0EE0FFF1FBB1F661F771F881FD6
:103E500091505040A9F79E3F510580F00C94451FAA
:103E60000C94901F5F3FE4F3983ED4F386957795CA
:103E70006795B795F795E7959F5FC1F7FE2B880F7C
:103E8000911D9695879597F9089597F99F6780E812
:103E900070E060E008959FEF80EC089500240A949C
:103EA0001616170618060906089500240A94121615
:103EB0001306140605060895092E0394000C11F448
:103EC000882352F0BB0F40F4BF2B11F460FF04C0F5
:103ED0006F5F7F4F8F4F9F4F089557FD9058440F4E
:103EE000551F59F05F3F71F04795880F97FB991F59
:103EF00061F09F3F79F08795089512161306140616
:103F0000551FF2CF4695F1DF08C0161617061806A2
:103F1000991FF1CF86957105610508940895E8947D
:103F2000BB2766277727CB0197F908950E94D81FF2
:103F3000A59F900DB49F900DA49F800D911D1124FD
:103F400008952F923F924F925F926F927F928F923D
:103F50009F92AF92BF92CF92DF92EF92FF920F9318
:103F60001F93CF93DF93CDB7DEB7CA1BDB0B0FB622
:103F7000F894DEBF0FBECDBF09942A8839884888DF
:103F80005F846E847D848C849B84AA84B984C88475
:103F9000DF80EE80FD800C811B81AA81B981CE0F6C
:103FA000D11D0FB6F894DEBF0FBECDBFED01089551
:103FB000A29FB001B39FC001A39F700D811D11246A
:103FC000911DB29F700D811D1124911D08955058AF
:103FD000BB27AA270E94FF1F0C945C1F0E944E1F44
:103FE00038F00E94551F20F039F49F3F19F426F451
:103FF0000C944B1F0EF4E095E7FB0C94451FE92F42
:104000000E946D1F58F3BA1762077307840795075C
:1040100020F079F4A6F50C948F1F0EF4E0950B2E8A
:10402000BA2FA02D0B01B90190010C01CA01A0010A
:104030001124FF27591B99F0593F50F4503E68F165
:104040001A16F040A22F232F342F4427585FF3CFA6
:10405000469537952795A795F0405395C9F77EF477
:104060001F16BA0B620B730B840BBAF09150A1F0C0
:10407000FF0FBB1F661F771F881FC2F70EC0BA0F46
:10408000621F731F841F48F4879577956795B795CE
:10409000F7959E3F08F0B0CF9395880F08F09927C9
:1040A000EE0F9795879508950E9468200C945C1FE9
:1040B0000E94551F58F00E944E1F40F029F45F3FA8
:1040C00029F00C94451F51110C94901F0C944B1F18
:1040D0000E946D1F68F39923B1F3552391F3951B4B
:1040E000550BBB27AA2762177307840738F09F5F19
:1040F0005F4F220F331F441FAA1FA9F335D00E2E86
:104100003AF0E0E832D091505040E695001CCAF7F2
:104110002BD0FE2F29D0660F771F881FBB1F2617B5
:1041200037074807AB07B0E809F0BB0B802DBF018C
:10413000FF2793585F4F3AF09E3F510578F00C945B
:10414000451F0C94901F5F3FE4F3983ED4F386958F
:1041500077956795B795F7959F5FC9F7880F911D7C
:104160009695879597F90895E1E0660F771F881F68
:10417000BB1F621773078407BA0720F0621B730B1B
:10418000840BBA0BEE1F88F7E09508950E94CD20AE
:104190006894B1110C94901F08950E94751F88F0C7
:1041A0009F5798F0B92F9927B751B0F0E1F0660FFB
:1041B000771F881F991F1AF0BA95C9F714C0B1303C
:1041C00091F00E948F1FB1E008950C948F1F672F0C
:1041D000782F8827B85F39F0B93FCCF3869577956B
:1041E0006795B395D9F73EF4909580957095619554
:1041F0007F4F8F4F9F4F0895991B79E004C0991FFF
:10420000961708F0961B881F7A95C9F78095089530
:1042100097FB072E16F4009407D077FD09D00E9473
:10422000462107FC05D03EF4909581959F4F089557
:10423000709561957F4F0895A1E21A2EAA1BBB1BB2
:10424000FD010DC0AA1FBB1FEE1FFF1FA217B30762
:10425000E407F50720F0A21BB30BE40BF50B661F78
:10426000771F881F991F1A9469F76095709580953C
:1042700090959B01AC01BD01CF010895B7FF0C944F
:10428000961F0E94961F821B930B0895AA1BBB1BAF
:1042900051E107C0AA1FBB1FA617B70710F0A61B46
:1042A000B70B881F991F5A95A9F780959095BC0167
:1042B000CD010895EE0FFF1F0590F491E02D0994B4
:1042C000CF93DF938230910510F482E090E0E0918B
:1042D0004305F091440520E030E0C0E0D0E03097A5
:1042E00011F14081518148175907C0F0481759070B
:1042F00061F482819381209719F09B838A832BC07C
:10430000909344058093430526C02115310519F08B
:104310004217530718F49A01BE01DF01EF01028032
:10432000F381E02DDCCF2115310509F1281B390B74
:104330002430310590F412968D919C91139761155C
:10434000710521F0FB019383828304C0909344059F
:1043500080934305FD01329644C0FD01E20FF31F37
:1043600081939193225031092D933C933AC020912F
:10437000410530914205232B41F4209106013091F3
:1043800007013093420520934105209104013091AB
:1043900005012115310541F42DB73EB740910801C3
:1043A00050910901241B350BE0914105F091420524
:1043B000E217F307A0F42E1B3F0B2817390778F0FC
:1043C000AC014E5F5F4F2417350748F04E0F5F1F5B
:1043D00050934205409341058193919302C0E0E0E0
:1043E000F0E0CF01DF91CF9108950F931F93CF930A
:1043F000DF93009709F48CC0FC013297138212827C
:1044000000914305109144050115110581F42081A7
:104410003181820F931F2091410530914205281769
:10442000390779F5F0934205E093410571C0D80151
:1044300040E050E0AE17BF0750F412962D913C912A
:104440001397AD012115310509F1D901F3CF9D0174
:10445000DA013383228360817181860F971F82176F
:10446000930769F4EC0128813981260F371F2E5FED
:104470003F4F318320838A819B8193838283452BA5
:1044800029F4F0934405E093430542C01396FC934E
:10449000EE931297ED01499159919E01240F351F1A
:1044A000E217F30771F480819181840F951F0296C2
:1044B00011969C938E938281938113969C938E93F5
:1044C0001297E0E0F0E0D80112968D919C9113973D
:1044D000009719F0F8018C01F6CF8D919C9198010D
:1044E0002E5F3F4F820F931F20914105309142056F
:1044F0002817390769F4309729F41092440510926F
:10450000430502C0138212821093420500934105B5
:10451000DF91CF911F910F910895A0E0B0E0E3E902
:10452000F2E20C94A51FEC01009721F4CB010E944C
:104530006021B8C0FC01E60FF71F9C012250310931
:10454000E217F30708F4ACC0D9010D911C91119743
:1045500006171707B0F00530110508F49FC0C80111
:1045600004978617970708F499C002501109061B93
:10457000170B019311936D937C93CF010E94F5214A
:104580008DC05B01A01AB10A4C01800E911EA09152
:104590004305B091440540E050E0E12CF12C109728
:1045A00009F44AC0A815B905D1F56D907C90119712
:1045B000630182E0C80ED11CCA14DB0480F1A301A0
:1045C0004A195B096A0182E0C80ED11C1296BC90A0
:1045D00012971396AC91B5E0CB16D10440F0B2829D
:1045E000A38351834083D9016D937C930AC00E5FEE
:1045F0001F4FC301800F911FF90191838083EB2D21
:10460000FA2FE114F10431F0D7011396FC93EE93E5
:10461000129744C0F0934405E09343053FC08D9149
:104620009C9111974817590708F4AC017D01129627
:104630000D90BC91A02DB3CF809141059091420582
:1046400088159905E1F446175707C8F480910401CD
:1046500090910501009741F48DB79EB740910801F4
:1046600050910901841B950BE817F907C8F4F093E2
:104670004205E0934105F901718360830FC0CB01CE
:104680000E9460217C01009759F0A801BE010E94A0
:104690005C23CE010E94F521C70104C0CE0102C0F7
:1046A00080E090E0CDB7DEB7EEE00C94C11F81E072
:1046B00090E0F8940C942126FB01DC0102C00190EB
:1046C0000D9241505040D8F70895FC018191861712
:1046D00021F08823D9F7992708953197CF010895BC
:1046E000FB01DC018D91019080190110D9F3990B28
:1046F0000895FB01DC0101900D920020E1F708957F
:10470000AEE0B0E0E6E8F3E20C94AF1F0D891E893D
:1047100086E08C831A8309838FEF9FE79E838D83C6
:10472000AE01475E5F4F6F89788DCE0101960E9482
:10473000A3232F813885F801E20FF31F10822E96F4
:10474000E4E00C94CB1FACE0B0E0E9EAF3E20C94B7
:10475000A11F7C016B018A01FC01178216828381F3
:1047600081FFBDC1CE0101964C01F7019381F60195
:1047700093FD859193FF81916F01882309F4ABC16B
:10478000853239F493FD859193FF81916F018532D4
:1047900029F4B70190E00E948B25E7CF512C312CF2
:1047A00020E02032A0F48B3269F030F4803259F0EE
:1047B000833269F420612CC08D3239F0803339F4B2
:1047C000216026C02260246023C0286021C027FD0C
:1047D00027C030ED380F3A3078F426FF06C0FAE0F3
:1047E0005F9E300D1124532E13C08AE0389E300D89
:1047F0001124332E20620CC08E3221F426FD6BC1B1
:10480000206406C08C3611F4206802C0883641F45A
:10481000F60193FD859193FF81916F018111C1CFC5
:10482000982F9F7D9554933028F40C5F1F4FFFE322
:10483000F9830DC0833631F0833771F0833509F089
:104840005BC022C0F801808189830E5F1F4F442422
:104850004394512C540115C03801F2E06F0E711CC5
:10486000F801A080B18026FF03C0652D70E002C072
:104870006FEF7FEFC5012C870E9480252C018301FB
:104880002C852F77222E17C03801F2E06F0E711C95
:10489000F801A080B18026FF03C0652D70E002C042
:1048A0006FEF7FEFC5012C870E9475252C012C85A9
:1048B0002068222E830123FC1BC0832D90E0481624
:1048C0005906B0F4B70180E290E00E948B253A943B
:1048D000F4CFF50127FC859127FE81915F01B70197
:1048E00090E00E948B2531103A94F1E04F1A510864
:1048F0004114510471F7E5C0843611F0893639F559
:10490000F80127FF07C060817181828193810C5F6C
:104910001F4F08C060817181072E000C880B990B16
:104920000E5F1F4F2F76722E97FF09C090958095CE
:10493000709561957F4F8F4F9F4F2068722E2AE0B0
:1049400030E0A4010E94C325A82EA81844C08537D2
:1049500029F42F7EB22E2AE030E025C0F22FF97F15
:10496000BF2E8F36C1F018F4883579F0B4C0803787
:1049700019F0883721F0AFC02F2F2061B22EB4FE7E
:104980000DC08B2D8460B82E09C024FF0AC09F2F54
:104990009660B92E06C028E030E005C020E130E086
:1049A00002C020E132E0F801B7FE07C060817181EA
:1049B000828193810C5F1F4F06C06081718180E00E
:1049C00090E00E5F1F4FA4010E94C325A82EA818D7
:1049D000FB2DFF777F2E76FE0BC0372D3E7FA51473
:1049E00050F474FE0AC072FC08C0372D3E7E05C02C
:1049F000BA2C372D03C0BA2C01C0B52C34FF0DC022
:104A0000FE01EA0DF11D8081803311F4397E09C069
:104A100032FF06C0B394B39404C0832F867809F0A4
:104A2000B39433FD13C030FF06C05A2CB31418F4EE
:104A3000530C5B18B32CB31468F4B70180E290E018
:104A40003C870E948B25B3943C85F5CFB31410F4BA
:104A50003B1801C0312C34FF12C0B70180E390E055
:104A60003C870E948B253C8532FF17C031FD03C077
:104A700088E790E002C088E590E0B7010CC0832F82
:104A8000867859F031FF02C08BE201C080E237FD29
:104A90008DE2B70190E00E948B25A51438F4B70190
:104AA00080E390E00E948B255A94F7CFAA94F401FA
:104AB000EA0DF11D8081B70190E00E948B25A110C5
:104AC000F5CF332009F451CEB70180E290E00E9487
:104AD0008B253A94F6CFF7018681978102C08FEF3C
:104AE0009FEF2C96E2E10C94BD1FFC0105906150F4
:104AF00070400110D8F7809590958E0F9F1F0895F4
:104B0000FC016150704001900110D8F7809590959C
:104B10008E0F9F1F08950F931F93CF93DF93FB0179
:104B2000238121FD03C08FEF9FEF28C022FF16C015
:104B300046815781248135814217530744F4A0816F
:104B4000B1819D012F5F3F4F318320838C9326815C
:104B500037812F5F3F4F3783268310C0EB01092F2A
:104B6000182F0084F185E02D0995892BE1F68E81BF
:104B70009F8101969F838E83812F902FDF91CF910C
:104B80001F910F910895FA01AA27283051F1203181
:104B900081F1E8946F936E7F6E5F7F4F8F4F9F4FD1
:104BA000AF4FB1E03ED0B4E03CD0670F781F891F13
:104BB0009A1FA11D680F791F8A1F911DA11D6A0FE1
:104BC000711D811D911DA11D20D009F468943F9194
:104BD0002AE0269F11243019305D3193DEF6CF0193
:104BE0000895462F4770405D4193B3E00FD0C9F759
:104BF000F6CF462F4F70405D4A3318F0495D31FDC6
:104C00004052419302D0A9F7EACFB4E0A695979518
:104C1000879577956795BA95C9F7009761057105EE
:104C200008959B01AC010A2E069457954795379538
:104C30002795BA95C9F7620F731F841F951FA01D92
:104C4000089513E0C9ECD3E004C0FE010E945A218C
:0C4C50002196CA3CD107C9F7F894FFCFA9
:104C5C00F404F4040000450580001F1C1F1E1F1ED9
:104C6C001F1F1E1F1E1F000000005C044916F403CA
:104C7C00A304250403041704000000006F063F067C
:104C8C009F06130637062306140600000000540581
:104C9C0049169F065305A805C0053B0500000000FA
:104CAC00230549169F06FF042F0517050B05302E0B
:104CBC003034004E6F7620203320323031370032C2
:104CCC00313A32333A34350041542B43495047532F
:104CDC004D4C4F433D322C310074696D652E6E691D
:104CEC0073742E676F76004F4B0025642F25642F4D
:104CFC0025642025643A2564006261720070736932
:104D0C0000766F6C74616765003163353835333606
:104D1C0062383335663439616162313831326361FE
:104D2C00316262313634626561007B2276616C756A
:104D3C0065223A2025647D007B2276616C756522A4
:104D4C003A2025642E25647D000D0A00415449004B
:0C4D5C0041542B474D4D00222C2200003A
:107800000C94343C0C94513C0C94513C0C94513CE1
:107810000C94513C0C94513C0C94513C0C94513CB4
:107820000C94513C0C94513C0C94513C0C94513CA4
:107830000C94513C0C94513C0C94513C0C94513C94
:107840000C94513C0C94513C0C94513C0C94513C84
:107850000C94513C0C94513C0C94513C0C94513C74
:107860000C94513C0C94513C11241FBECFEFD8E036
:10787000DEBFCDBF11E0A0E0B1E0EAE8FFE702C063
:1078800005900D92A230B107D9F712E0A2E0B1E065
:1078900001C01D92AD30B107E1F70E942D3D0C945F
:1078A000C33F0C94003C982F95959595959595958B
:1078B000905D8F708A307CF0282F295A8091C0000B
:1078C00085FFFCCF9093C6008091C00085FFFCCF60
:1078D0002093C6000895282F205DF0CF982F809127
:1078E000C00085FFFCCF9093C6000895EF92FF92F1
:1078F0000F931F93EE24FF2487018091C00087FD22
:1079000017C00894E11CF11C011D111D81E2E8164D
:1079100081EAF80687E0080780E0180770F3E09135
:107920000401F091050109958091C00087FFE9CF1E
:107930008091C6001F910F91FF90EF9008950E94D3
:10794000763C982F8091C00085FFFCCF9093C600B5
:1079500091362CF490330CF09053892F089597555D
:10796000892F08951F930E949F3C182F0E949F3CCF
:107970001295107F810F1F9108951F93182F882350
:1079800021F00E94763C1150E1F71F9108951F935A
:10799000182F0E94763C803249F0809103018F5F5E
:1079A000809303018530C1F01F9108958091C0003C
:1079B00085FFFCCF84E18093C6008091C00085FFE5
:1079C000FCCF1093C6008091C00085FFFCCF80E102
:1079D0008093C6001F910895E0910401F091050184
:1079E00009951F9108950E94763C803241F0809164
:1079F00003018F5F80930301853081F008958091AA
:107A0000C00085FFFCCF84E18093C6008091C00058
:107A100085FFFCCF80E18093C6000895E0910401CA
:107A2000F09105010995089548EC50E08823A1F0F4
:107A30002D9A28EE33E0FA013197F1F721503040CA
:107A4000D1F72D9828EE33E0FA013197F1F7215064
:107A50003040D1F7815061F708953F924F925F9285
:107A60006F927F928F929F92AF92BF92CF92DF924E
:107A7000EF92FF920F931F93CF93DF93000082E06A
:107A80008093C00080E18093C4001092C50088E11B
:107A90008093C10086E08093C2005098589A259A3E
:107AA00081E00E94143D24E1F22E9EE1E92E85E959
:107AB000D82E0FE0C02E10E1B12EAA24A394B1E479
:107AC0009B2EA6E58A2EF2E57F2EE0E26E2E79E46B
:107AD000572E63E5462E50E5352E0E94763C8033C6
:107AE000B1F18133B9F1803409F46FC0813409F404
:107AF00076C0823409F485C0853409F488C08035A5
:107B000031F1823521F1813511F1853509F485C0D6
:107B1000863509F48DC0843609F496C0843709F49B
:107B200003C1853709F472C1863709F466C08091B4
:107B300003018F5F80930301853079F6E0910401A2
:107B4000F091050109950E94763C803351F60E9420
:107B5000F33CC3CF0E94763C803249F78091C0004D
:107B600085FFFCCFF092C6008091C00085FFFCCF5E
:107B70009092C6008091C00085FFFCCF8092C60025
:107B80008091C00085FFFCCF7092C6008091C0003C
:107B900085FFFCCF6092C6008091C00085FFFCCFBE
:107BA0005092C6008091C00085FFFCCF4092C60075
:107BB0008091C00085FFFCCF3092C6008091C0004C
:107BC00085FFFCCFB092C60088CF0E94763C8638F5
:107BD00008F4BDCF0E94763C0E94F33C7ECF0E9409
:107BE000763C803809F49CC0813809F40BC1823896
:107BF00009F430C1883909F48FC080E00E94C73C85
:107C00006CCF84E10E94BD3C0E94F33C66CF85E0CE
:107C10000E94BD3C0E94F33C60CF0E94763C809362
:107C200006010E94763C809307010E94F33C55CFE9
:107C30000E94763C803309F411C183E00E94BD3C70
:107C400080E00E94C73C49CF0E94763C80930902A5
:107C50000E94763C8093080280910C028E7F809374
:107C60000C020E94763C853409F409C18091080217
:107C700090910902892B89F000E010E00E94763C87
:107C8000F801E85FFE4F80830F5F1F4F809108026D
:107C9000909109020817190788F30E94763C8032F8
:107CA00009F045CF80910C0280FFF5C0609106017C
:107CB00070910701660F771F7093070160930601AB
:107CC000A0910802B09109021097C9F0E8E0F1E034
:107CD0009B01AD014E0F5F1FF999FECF32BD21BD53
:107CE000819180BDFA9AF99A2F5F3F4FE417F5070B
:107CF00099F76A0F7B1F70930701609306018091CB
:107D0000C00085FFFCCFF092C6008091C00085FFC7
:107D1000FCCFB092C600E1CE83E00E94C73CDDCE2E
:107D200082E00E94C73CD9CE0E94763C8093090233
:107D30000E94763C80930802809106019091070191
:107D4000880F991F90930701809306010E94763C4B
:107D5000853409F49AC080910C028E7F80930C02C6
:107D60000E94763C803209F0B8CE8091C00085FF39
:107D7000FCCFF092C600A0910802B09109021097C2
:107D8000C1F180910C02082F0170182F1695117007
:107D9000E0910601F0910701AF014F5F5F4FBA011B
:107DA00020E030E00023B1F4112339F49491809164
:107DB000C00085FFFCCF9093C6002F5F3F4FCB01E3
:107DC0000196FA012A173B0780F4BC014F5F5F4F11
:107DD000002351F3F999FECFF2BDE1BDF89A90B5B9
:107DE0008091C00085FFFCCFE6CF709307016093C0
:107DF00006018091C00085FDE5CE8091C00085FF21
:107E0000F8CFE0CE81E00E94C73C67CE0E94763C6E
:107E1000803209F08CCE8091C00085FFFCCFF092BB
:107E2000C6008091C00085FFFCCFE092C600809123
:107E3000C00085FFFCCFD092C6008091C00085FFB6
:107E4000FCCFC092C6008091C00085FFFCCFB092ED
:107E5000C60043CE80E10E94C73C3FCE0E94763CE4
:107E60000E94763C182F0E94763C112309F483C0AF
:107E7000113009F484C08FE00E94C73C2ECE80915F
:107E80000C02816080930C02F1CE80910C02816023
:107E900080930C0265CF809107018823880F880B9F
:107EA0008A2180930B028091060190910701880F2F
:107EB000991F90930701809306018091080280FF2B
:107EC00009C08091080290910902019690930902DD
:107ED00080930802F894F999FECF1127E0910601EA
:107EE000F0910701C8E0D1E0809108029091090269
:107EF000103091F40091570001700130D9F303E084
:107F000000935700E8950091570001700130D9F3B4
:107F100001E100935700E8950990199000915700EE
:107F200001700130D9F301E000935700E8951395F3
:107F3000103498F011270091570001700130D9F3E7
:107F400005E000935700E89500915700017001305B
:107F5000D9F301E100935700E8953296029709F0B2
:107F6000C7CF103011F00296E5CF11248091C000E8
:107F700085FFC5CEC8CE8EE10E94C73CAECD85E957
:0A7F80000E94C73CAACDF894FFCF81
:027F8A00800075
:040000030000780081
:00000001FF